:100000000C9462000C948A000C948A000C948A0070
:100010000C948A000C948A000C948A000C948A0038
:100020000C948A000C948A000C948A000C948A0028
:100030000C948A000C948A000C948A000C948A0018
:100040000C942E050C948A000C949E050C94780553
:100050000C948A000C948A000C948A000C948A00F8
:100060000C948A000C948A000000000024002700F1
:100070002A0000000000250028002B0000000008D6
:10008000000201000003040700000000000000005F
:1000900000000000230026002900040404040404D6
:1000A0000404020202020202030303030303010227
:1000B00004081020408001020408102001020408F6
:1000C0001020D00511241FBECFEFD8E0DEBFCDBF7A
:1000D00011E0A0E0B1E0E4EAF4E102C005900D9285
:1000E000AC39B107D9F722E0ACE9B1E001C01D920B
:1000F000A535B207E1F710E0C2E6D0E004C02197D1
:10010000FE010E944A0AC136D107C9F70E941D06A6
:100110000C94500A0C940000CF92DF92EF92FF9261
:10012000CF93DF93B0914902A0E08111AB2F809172
:100130004A0290E0880F991FAC0140575F4FC09072
:100140004F02D0905002E0905102F090520230E005
:1001500020E0FA01C591D491E881B90190E080E0F6
:10016000EB23EA130AC02F5F3F4F6C157D058E0508
:100170009F0578F36FEF7FEFCB01DF91CF91FF9079
:10018000EF90DF90CF900895833081F028F4813094
:1001900099F08230A9F008958730A9F08830C9F02D
:1001A0008430B1F4809180008F7D03C08091800005
:1001B0008F7780938000089584B58F7784BD0895EC
:1001C00084B58F7DFBCF8091B0008F778093B00096
:1001D00008958091B0008F7DF9CFCF93DF93282FC2
:1001E00030E0F901E458FF4F8491F901E255FF4FE7
:1001F000D491F901E656FF4FC491CC23A1F08111AF
:100200000E94C400EC2FF0E0EE0FFF1FE057FF4FFD
:10021000A591B491EC91ED2381E090E009F480E0A8
:10022000DF91CF91089580E090E0FACF1F93CF93B4
:10023000DF93282F30E0F901E458FF4F8491F90152
:10024000E255FF4FD491F901E656FF4FC491CC23FC
:10025000A9F0162F81110E94C400EC2FF0E0EE0FE0
:10026000FF1FEE58FF4FA591B4918FB7F894EC9112
:10027000111108C0D095DE23DC938FBFDF91CF91A1
:100280001F910895DE2BF8CFCF93DF9390E0FC0110
:10029000E255FF4F249186569F4FFC01849188239D
:1002A000C9F090E0880F991FFC01E859FF4FA59114
:1002B000B491FC01EE58FF4FC591D49161110DC06E
:1002C0009FB7F8948C91209582238C938881282362
:1002D00028839FBFDF91CF910895623051F49FB77B
:1002E000F8943C91822F809583238C93E8812E2B68
:1002F000EFCF8FB7F894EC912E2B2C938FBFEACFD2
:100300003FB7F89480919D0190919E01A0919F012B
:10031000B091A00126B5A89B05C02F3F19F001960A
:10032000A11DB11D3FBFBA2FA92F982F8827BC014F
:10033000CD01620F711D811D911D42E0660F771F77
:10034000881F991F4A95D1F708958F929F92AF9277
:10035000BF92CF92DF92EF92FF924B015C010E941D
:1003600080016B017C010E9480016C197D098E095E
:100370009F09683E734081059105A8F321E0821A28
:100380009108A108B10888EEC80E83E0D81EE11CD0
:10039000F11C81149104A104B10429F7FF90EF909E
:1003A000DF90CF90BF90AF909F908F900895CF92A5
:1003B000DF92EF92FF920F931F93CF93DF93CDB70E
:1003C000DEB7C054D1400FB6F894DEBF0FBECDBF2C
:1003D0002FB7F8948091A1019091A201A091A3015F
:1003E000B091A4012FBF40914B0250914C026091FB
:1003F0004D0270914E028C019D01041B150B260BC2
:10040000370BB901A801403D57406105710590F4D3
:1004100080915302C05CDE4F0FB6F894DEBF0FBE72
:10042000CDBFDF91CF911F910F91FF90EF90DF90A3
:10043000CF90089580934B0290934C02A0934D026D
:10044000B0934E021092460210924502109244025E
:10045000109243021092420262E0809147020E9491
:10046000440161E070E080E090E00E94A50161E05D
:10047000809147020E94440160E0809147020E94FF
:100480001601809148028551823020F58BE291E17E
:100490000197F1F762E0809147020E944401809148
:1004A000540290E08230910538F0880F991F880F30
:1004B000991F05970197F1F7F89480E00E948C004E
:1004C0006F3F7F4F8F4F9F4F61F41092530278948C
:1004D00080E0A0CF64E170E080E090E00E94A501A0
:1004E000D9CF81E00E948C006F3F7F4F8F4F9F4F8D
:1004F00061F38E010F5F1F4F6E018FEBC81A8EEFF5
:10050000D80A780180E00E948C00F7016083718333
:100510008283938381E00E948C00F701648375835A
:1005200086839783F8E0EF0EF11CEC14FD0451F77D
:10053000789430E020E0F801C080D180E280F38040
:100540004481558166817781FFEFCF16DF06EF0684
:10055000FF0631F04F3F8FEF58076807780719F40F
:1005600010925302B5CFF90183E0F595E7958A958E
:10057000E1F7EE5BFD4F8081880FC416D506E606D5
:10058000F70610F180832F5F3F4F085F1F4F28321F
:10059000310589F640914602209142028091430242
:1005A000280F3327331F80914402280F311D80917B
:1005B0004502820F932F911D99274817190681F63E
:1005C00081E08093530226CF8160DCCFAF92BF924F
:1005D000CF92DF92EF92FF920F931F93CF93DF930F
:1005E0006C017B018B01040F151FEB015E01AE183E
:1005F000BF08C017D10759F06991D601ED91FC9160
:100600000190F081E02DC6010995892B79F7C5018C
:10061000DF91CF911F910F91FF90EF90DF90CF90DE
:10062000BF90AF900895FC01538D448D252F30E08D
:10063000842F90E0821B930B541710F0CF960895EF
:1006400001970895FC01918D828D981761F0A28D1C
:10065000AE0FBF2FB11D5D968C91928D9F5F9F73E2
:10066000928F90E008958FEF9FEF0895FC01918D98
:10067000828D981731F0828DE80FF11D858D90E005
:1006800008958FEF9FEF0895FC01918D228D892FA2
:1006900090E0805C9F4F821B91098F73992708958A
:1006A00085EA91E00E94440321E0892B09F420E0CF
:1006B000822F089580E090E0892B29F00E9450035A
:1006C00081110C9400000895FC01A48DA80FB92F8E
:1006D000B11DA35ABF4F2C91848D90E001968F736A
:1006E0009927848FA689B7892C93A089B1898C9189
:1006F000837080648C93938D848D981306C00288D8
:10070000F389E02D80818F7D80830895EF92FF92A1
:100710000F931F93CF93DF93EC0181E0888F9B8D24
:100720008C8D98131AC0E889F989808185FF15C0DE
:100730009FB7F894EE89FF896083E889F989808101
:100740008370806480839FBF81E090E0DF91CF91D0
:100750001F910F91FF90EF900895F62E0B8D10E0F2
:100760000F5F1F4F0F731127E02E8C8D8E110CC061
:100770000FB607FCFACFE889F989808185FFF5CFAC
:10078000CE010E946403F1CFEB8DEC0FFD2FF11D24
:10079000E35AFF4FF0829FB7F8940B8FEA89FB89E9
:1007A00080818062CFCFCF93DF93EC01888D882347
:1007B000B9F0AA89BB89E889F9898C9185FD03C0C4
:1007C000808186FD0DC00FB607FCF7CF8C9185FFA9
:1007D000F2CF808185FFEDCFCE010E946403E9CF87
:1007E000DF91CF910895FC0101900020E9F7319746
:1007F000AF01481B590BBC0185EA91E00C94E6025D
:100800008F929F92AF92BF920F931F93CF93DF93DC
:10081000CDB7DEB7A1970FB6F894DEBF0FBECDBF40
:1008200019A2423008F44AE08E010F5D1F4F842E5A
:10083000912CB12CA12CA50194010E94280AE62F2D
:10084000B901CA01EA30F4F4E05DD801EE938D01FC
:10085000232B242B252B79F790E080E0109719F0BB
:10086000CD010E94F303A1960FB6F894DEBF0FBE30
:10087000CDBFDF91CF911F910F91BF90AF909F900F
:100880008F900895E95CE1CFCF93DF930E94F3034B
:10089000EC0182E191E00E94F3038C0F9D1FDF9138
:1008A000CF9108954F925F926F927F928F929F9215
:1008B000AF92BF92CF92DF92EF92FF920F931F936E
:1008C000CF936B017C01742EAC019B010E94230A23
:1008D000882399F085E191E0CF911F910F91FF90CE
:1008E000EF90DF90CF90BF90AF909F908F907F90D0
:1008F0006F905F904F900C94F30346015701E8947A
:10090000B7F82FEF3FEF4FE75FE7C501B4010E9453
:10091000230A81110DC02FEF3FEF4FE75FE7C501BD
:10092000B4010E94590818161CF489E191E0D4CF53
:100930002FEF3FEF4FE75FE4C701B6010E94B10917
:1009400018161CF48DE191E0C7CF2FEF3FEF4FE772
:100950005FECC701B6010E94590887FDF3CF20E084
:1009600030E0A901C701B6010E94590810E000E07B
:1009700087FF0AC06DE285EA91E00E9486038C0140
:10098000F7FAF094F7F8F094C0E060E070E080E0EF
:100990009FE37C1641F020E030E040E251E40E9409
:1009A0005E08CF5FF6CFA70196010E94ED072B01ED
:1009B0003C010E94D0084B015C014AE00E94000407
:1009C0007C01E00EF11ECC23C1F1C501B4010E94EF
:1009D000FF089B01AC01C301B2010E94EC074B016F
:1009E0005C016EE285EA91E00E948603E80EF91E42
:1009F000C15018F120E030E040E251E4C501B401FB
:100A00000E94B6092B013C010E94D0084B01B12C79
:100A1000A12C4AE0C501B4010E940004E80EF91EB1
:100A2000C501B4010E94FF089B01AC01C301B201E2
:100A30000E94EC074B015C01DBCFC701CF911F91F6
:100A40000F91FF90EF90DF90CF90BF90AF909F906D
:100A50008F907F906F905F904F9008951F920F92AC
:100A60000FB60F9211242F933F938F939F93AF93C1
:100A7000BF938091A1019091A201A091A301B09197
:100A8000A40130919C0123E0230F2D3758F50196E6
:100A9000A11DB11D20939C018093A1019093A201FF
:100AA000A093A301B093A40180919D0190919E0118
:100AB000A0919F01B091A0010196A11DB11D80934D
:100AC0009D0190939E01A0939F01B093A001BF91BF
:100AD000AF919F918F913F912F910F900FBE0F90EB
:100AE0001F90189526E8230F0296A11DB11DD2CFA5
:100AF0001F920F920FB60F9211242F933F934F9393
:100B00005F936F937F938F939F93AF93BF93EF9375
:100B1000FF9385EA91E00E946403FF91EF91BF91FA
:100B2000AF919F918F917F916F915F914F913F9185
:100B30002F910F900FBE0F901F9018951F920F923C
:100B40000FB60F9211242F938F939F93EF93FF93E0
:100B5000E091B501F091B6018081E091BB01F09187
:100B6000BC0182FD1BC090818091BE018F5F8F739D
:100B70002091BF01821741F0E091BE01F0E0EB55FA
:100B8000FE4F958F8093BE01FF91EF919F918F91C2
:100B90002F910F900FBE0F901F9018958081F4CF6A
:100BA000E5EAF1E01382128288EE93E0A0E0B0E083
:100BB00084839583A683B78384E091E091838083C7
:100BC00085EC90E09587848784EC90E09787868712
:100BD00080EC90E0918B808B81EC90E0938B828B0A
:100BE00082EC90E0958B848B86EC90E0978B868BE3
:100BF000118E128E138E148EA2E4B2E08FE0159641
:100C00008C9315978BE016968C931697EDEBF0E08E
:100C1000E4911796EC931797E9EAF0E0E4911896BF
:100C2000EC93189740E85EE360E070E01D964D930A
:100C30005D936D937C9350970895789484B582600A
:100C400084BD84B5816084BD85B5826085BD85B570
:100C5000816085BD80916E00816080936E001092EE
:100C60008100809181008260809381008091810069
:100C700081608093810080918000816080938000FA
:100C80008091B10084608093B1008091B000816058
:100C90008093B00080917A00846080937A00809184
:100CA0007A00826080937A0080917A0081608093DC
:100CB0007A0080917A00806880937A001092C10057
:100CC000E091B501F091B60182E08083E091B1013D
:100CD000F091B2011082E091B301F091B4018FEC78
:100CE00080831092BD01E091B901F091BA0186E0D4
:100CF0008083E091B701F091B801808180618083A9
:100D0000E091B701F091B801808188608083E09123
:100D1000B701F091B801808180688083E091B701CC
:100D2000F091B80180818F7D808360E08CE00E942B
:100D3000440160E08BE00E94440161E08AE00E948F
:100D4000440161E08DE00E94440161E089E00E947D
:100D5000440162E0809147020E9444012FB7F89459
:100D60008091A1019091A201A091A301B091A40151
:100D70002FBF805D9740A109B10980934B029093EA
:100D80004C02A0934D02B0934E0287E3809354022D
:100D900081E291E00E944404C0E0D0E08CE00E9437
:100DA000ED005C018BE00E94ED008C010E94D701F8
:100DB000882341F0809148028C3009F462C048F4E5
:100DC0008B3001F1C12CD12C90ECE92E9FE7F92E4C
:100DD00043C085518230B0F790904402692D70E095
:100DE000762F662766277F7780914502682B90E0F3
:100DF00080E00E94FF082DEC3CEC4CEC5DE30E948F
:100E0000B6095BC06091440270E090E080E00E940F
:100E1000FF082B013C01F0904502F7FE0AC0AC012F
:100E20009B0160E070E080E89FEB0E94EC072B01E3
:100E30003C016F2D6F7070E090E080E00E9401092E
:100E40002DEC3CEC4CEC5DE30E94B609A301920151
:100E50000E94ED076B017C010E94D701882351F0AD
:100E6000809148028B3030F08D3080F18551823096
:100E700008F496C0412C512C80EC682E8FE7782E18
:100E800043C090904402692D70E090E080E00E94A1
:100E9000FF086B017C01609145026F7070E090E08B
:100EA00080E00E9401092DEC3CEC4CEC5DE30E94DB
:100EB000B609A70196010E94ED076B017C0197FE20
:100EC000CBCFF7FAF094F7F8F094C6CF60914302D5
:100ED00070E090E080E00E9401092DEC3CEC4CECCD
:100EE0005DE30E94B6092B013C016091420270E073
:100EF00090E080E00E9401099B01AC01C301B201B6
:100F00000E94ED072B013C018CE491E00E94F30369
:100F100042E0C701B6010E94520483E591E00E94BD
:100F2000F30342E0C301B2010E94520485E691E05E
:100F30000E944404AA94AB2809F044C088E691E0DA
:100F40000E94440461E08AE00E94160161E08DE0A5
:100F50000E94160161E089E00E941601013011052E
:100F600071F484E891E00E94440461E089E00E9409
:100F700016016CE271E080E090E00E94A50168EC4F
:100F800070E080E090E00E94A501209709F406CF70
:100F90000E945003882309F401CF0E940000FECE76
:100FA000609142027091430276276727762790E08E
:100FB00080E00E94FF082DEC3CEC4CEC5DE30E94CD
:100FC000B609A0CF60E08AE00E94160160E08DE0E3
:100FD0000E94160160E0BFCF5058BB27AA270E948D
:100FE00004080C9477090E94690938F00E9470097E
:100FF00020F039F49F3F19F426F40C9466090EF49E
:10100000E095E7FB0C946009E92F0E94880958F3EA
:10101000BA17620773078407950720F079F4A6F5DD
:101020000C94AA090EF4E0950B2EBA2FA02D0B01FB
:10103000B90190010C01CA01A0011124FF27591B1D
:1010400099F0593F50F4503E68F11A16F040A22F23
:10105000232F342F4427585FF3CF46953795279594
:10106000A795F0405395C9F77EF41F16BA0B620B93
:10107000730B840BBAF09150A1F0FF0FBB1F661FDA
:10108000771F881FC2F70EC0BA0F621F731F841F1D
:1010900048F4879577956795B795F7959E3F08F043
:1010A000B0CF9395880F08F09927EE0F9795879505
:1010B00008950E943C0908F481E008950E94720896
:1010C0000C9477090E94700958F00E94690940F059
:1010D00029F45F3F29F00C94600951110C94AB097D
:1010E0000C9466090E94880968F39923B1F355238B
:1010F00091F3951B550BBB27AA276217730784072B
:1011000038F09F5F5F4F220F331F441FAA1FA9F3C0
:1011100035D00E2E3AF0E0E832D091505040E695AE
:10112000001CCAF72BD0FE2F29D0660F771F881F0F
:10113000BB1F261737074807AB07B0E809F0BB0B02
:10114000802DBF01FF2793585F4F3AF09E3F510516
:1011500078F00C9460090C94AB095F3FE4F3983E7F
:10116000D4F3869577956795B795F7959F5FC9F7FF
:10117000880F911D9695879597F90895E1E0660F80
:10118000771F881FBB1F621773078407BA0720F0F9
:10119000621B730B840BBA0BEE1F88F7E095089562
:1011A0000E94900988F09F5798F0B92F9927B7515E
:1011B000B0F0E1F0660F771F881F991F1AF0BA95FB
:1011C000C9F714C0B13091F00E94AA09B1E00895A6
:1011D0000C94AA09672F782F8827B85F39F0B93F98
:1011E000CCF3869577956795B395D9F73EF49095AE
:1011F0008095709561957F4F8F4F9F4F0895E8942C
:1012000009C097FB3EF490958095709561957F4F4E
:101210008F4F9F4F9923A9F0F92F96E9BB279395FC
:10122000F695879577956795B795F111F8CFFAF40C
:10123000BB0F11F460FF1BC06F5F7F4F8F4F9F4F3D
:1012400016C0882311F096E911C0772321F09EE89B
:10125000872F762F05C0662371F096E8862F70E001
:1012600060E02AF09A95660F771F881FDAF7880FDB
:101270009695879597F90895990F0008550FAA0B31
:10128000E0E8FEEF16161706E807F907C0F0121699
:101290001306E407F50798F0621B730B840B950B9C
:1012A00039F40A2661F0232B242B252B21F40895F1
:1012B0000A2609F4A140A6958FEF811D811D08958E
:1012C00097F99F6780E870E060E008959FEF80ECF9
:1012D000089500240A94161617061806090608959C
:1012E00000240A9412161306140605060895092E02
:1012F0000394000C11F4882352F0BB0F40F4BF2B71
:1013000011F460FF04C06F5F7F4F8F4F9F4F0895B0
:1013100057FD9058440F551F59F05F3F71F04795A6
:10132000880F97FB991F61F09F3F79F0879508958B
:10133000121613061406551FF2CF4695F1DF08C0AA
:10134000161617061806991FF1CF869571056105C7
:1013500008940895E894BB2766277727CB0197F96F
:1013600008950E943C0908F48FEF08950E94C9096E
:101370000C9477090E94690938F00E94700920F0E6
:10138000952311F00C9460090C94660911240C94B7
:10139000AB090E94880970F3959FC1F3950F50E047
:1013A000551F629FF001729FBB27F00DB11D639F17
:1013B000AA27F00DB11DAA1F649F6627B00DA11DBD
:1013C000661F829F2227B00DA11D621F739FB00D63
:1013D000A11D621F839FA00D611D221F749F3327D3
:1013E000A00D611D231F849F600D211D822F762F6C
:1013F0006A2F11249F5750409AF0F1F088234AF049
:10140000EE0FFF1FBB1F661F771F881F91505040B4
:10141000A9F79E3F510580F00C9460090C94AB092C
:101420005F3FE4F3983ED4F3869577956795B7953B
:10143000F795E7959F5FC1F7FE2B880F911D969555
:10144000879597F908950E943C09880B990B089598
:10145000A1E21A2EAA1BBB1BFD010DC0AA1FBB1FB8
:10146000EE1FFF1FA217B307E407F50720F0A21B2A
:10147000B30BE40BF50B661F771F881F991F1A9497
:1014800069F760957095809590959B01AC01BD01C1
:10149000CF010895EE0FFF1F0590F491E02D099400
:0414A000F894FFCFEE
:1014A400000000008603E6021303D303440322036F
:1014B40036030D0A006E616E00696E66006F766613
:1014C40000536D617274204D6F73717569746F2070
:1014D400446574656374696F6E2053797374656DC4
:1014E40020537461727465642E2E2E0054656D70E1
:1014F4003A200020C2B043207C2048756D6964699D
:1015040074793A20002025004D6F73717569746FEA
:1015140020416374697669747920446574656374E1
:10152400656421005741524E494E473A2047617342
:0C15340020446574656374656421000048
:00000001FF
